{
    "contractName": "MintNFT",
    "abi": [
        {
            "inputs": [],
            "stateMutability": "nonpayable",
            "type": "constructor"
        },
        {
            "anonymous": false,
            "inputs": [
                {
                    "indexed": true,
                    "internalType": "address",
                    "name": "owner",
                    "type": "address"
                },
                {
                    "indexed": true,
                    "internalType": "address",
                    "name": "approved",
                    "type": "address"
                },
                {
                    "indexed": true,
                    "internalType": "uint256",
                    "name": "tokenId",
                    "type": "uint256"
                }
            ],
            "name": "Approval",
            "type": "event"
        },
        {
            "anonymous": false,
            "inputs": [
                {
                    "indexed": true,
                    "internalType": "address",
                    "name": "owner",
                    "type": "address"
                },
                {
                    "indexed": true,
                    "internalType": "address",
                    "name": "operator",
                    "type": "address"
                },
                {
                    "indexed": false,
                    "internalType": "bool",
                    "name": "approved",
                    "type": "bool"
                }
            ],
            "name": "ApprovalForAll",
            "type": "event"
        },
        {
            "anonymous": false,
            "inputs": [
                {
                    "indexed": true,
                    "internalType": "address",
                    "name": "from",
                    "type": "address"
                },
                {
                    "indexed": true,
                    "internalType": "address",
                    "name": "to",
                    "type": "address"
                },
                {
                    "indexed": true,
                    "internalType": "uint256",
                    "name": "tokenId",
                    "type": "uint256"
                }
            ],
            "name": "Transfer",
            "type": "event"
        },
        {
            "inputs": [
                {
                    "internalType": "address",
                    "name": "to",
                    "type": "address"
                },
                {
                    "internalType": "uint256",
                    "name": "tokenId",
                    "type": "uint256"
                }
            ],
            "name": "approve",
            "outputs": [],
            "stateMutability": "nonpayable",
            "type": "function"
        },
        {
            "inputs": [
                {
                    "internalType": "address",
                    "name": "owner",
                    "type": "address"
                }
            ],
            "name": "balanceOf",
            "outputs": [
                {
                    "internalType": "uint256",
                    "name": "",
                    "type": "uint256"
                }
            ],
            "stateMutability": "view",
            "type": "function",
            "constant": true
        },
        {
            "inputs": [
                {
                    "internalType": "uint256",
                    "name": "tokenId",
                    "type": "uint256"
                }
            ],
            "name": "getApproved",
            "outputs": [
                {
                    "internalType": "address",
                    "name": "",
                    "type": "address"
                }
            ],
            "stateMutability": "view",
            "type": "function",
            "constant": true
        },
        {
            "inputs": [
                {
                    "internalType": "address",
                    "name": "owner",
                    "type": "address"
                },
                {
                    "internalType": "address",
                    "name": "operator",
                    "type": "address"
                }
            ],
            "name": "isApprovedForAll",
            "outputs": [
                {
                    "internalType": "bool",
                    "name": "",
                    "type": "bool"
                }
            ],
            "stateMutability": "view",
            "type": "function",
            "constant": true
        },
        {
            "inputs": [],
            "name": "mintPrice",
            "outputs": [
                {
                    "internalType": "uint256",
                    "name": "",
                    "type": "uint256"
                }
            ],
            "stateMutability": "view",
            "type": "function",
            "constant": true
        },
        {
            "inputs": [],
            "name": "name",
            "outputs": [
                {
                    "internalType": "string",
                    "name": "",
                    "type": "string"
                }
            ],
            "stateMutability": "view",
            "type": "function",
            "constant": true
        },
        {
            "inputs": [
                {
                    "internalType": "uint256",
                    "name": "tokenId",
                    "type": "uint256"
                }
            ],
            "name": "ownerOf",
            "outputs": [
                {
                    "internalType": "address",
                    "name": "",
                    "type": "address"
                }
            ],
            "stateMutability": "view",
            "type": "function",
            "constant": true
        },
        {
            "inputs": [
                {
                    "internalType": "address",
                    "name": "from",
                    "type": "address"
                },
                {
                    "internalType": "address",
                    "name": "to",
                    "type": "address"
                },
                {
                    "internalType": "uint256",
                    "name": "tokenId",
                    "type": "uint256"
                }
            ],
            "name": "safeTransferFrom",
            "outputs": [],
            "stateMutability": "nonpayable",
            "type": "function"
        },
        {
            "inputs": [
                {
                    "internalType": "address",
                    "name": "from",
                    "type": "address"
                },
                {
                    "internalType": "address",
                    "name": "to",
                    "type": "address"
                },
                {
                    "internalType": "uint256",
                    "name": "tokenId",
                    "type": "uint256"
                },
                {
                    "internalType": "bytes",
                    "name": "_data",
                    "type": "bytes"
                }
            ],
            "name": "safeTransferFrom",
            "outputs": [],
            "stateMutability": "nonpayable",
            "type": "function"
        },
        {
            "inputs": [
                {
                    "internalType": "address",
                    "name": "operator",
                    "type": "address"
                },
                {
                    "internalType": "bool",
                    "name": "approved",
                    "type": "bool"
                }
            ],
            "name": "setApprovalForAll",
            "outputs": [],
            "stateMutability": "nonpayable",
            "type": "function"
        },
        {
            "inputs": [],
            "name": "symbol",
            "outputs": [
                {
                    "internalType": "string",
                    "name": "",
                    "type": "string"
                }
            ],
            "stateMutability": "view",
            "type": "function",
            "constant": true
        },
        {
            "inputs": [
                {
                    "internalType": "uint256",
                    "name": "index",
                    "type": "uint256"
                }
            ],
            "name": "tokenByIndex",
            "outputs": [
                {
                    "internalType": "uint256",
                    "name": "",
                    "type": "uint256"
                }
            ],
            "stateMutability": "view",
            "type": "function",
            "constant": true
        },
        {
            "inputs": [
                {
                    "internalType": "address",
                    "name": "owner",
                    "type": "address"
                },
                {
                    "internalType": "uint256",
                    "name": "index",
                    "type": "uint256"
                }
            ],
            "name": "tokenOfOwnerByIndex",
            "outputs": [
                {
                    "internalType": "uint256",
                    "name": "",
                    "type": "uint256"
                }
            ],
            "stateMutability": "view",
            "type": "function",
            "constant": true
        },
        {
            "inputs": [],
            "name": "totalSupply",
            "outputs": [
                {
                    "internalType": "uint256",
                    "name": "",
                    "type": "uint256"
                }
            ],
            "stateMutability": "view",
            "type": "function",
            "constant": true
        },
        {
            "inputs": [
                {
                    "internalType": "address",
                    "name": "from",
                    "type": "address"
                },
                {
                    "internalType": "address",
                    "name": "to",
                    "type": "address"
                },
                {
                    "internalType": "uint256",
                    "name": "tokenId",
                    "type": "uint256"
                }
            ],
            "name": "transferFrom",
            "outputs": [],
            "stateMutability": "nonpayable",
            "type": "function"
        },
        {
            "inputs": [
                {
                    "internalType": "uint256",
                    "name": "tokenId",
                    "type": "uint256"
                }
            ],
            "name": "tokenURI",
            "outputs": [
                {
                    "internalType": "string",
                    "name": "",
                    "type": "string"
                }
            ],
            "stateMutability": "view",
            "type": "function",
            "constant": true
        },
        {
            "inputs": [
                {
                    "internalType": "bytes4",
                    "name": "interfaceId",
                    "type": "bytes4"
                }
            ],
            "name": "supportsInterface",
            "outputs": [
                {
                    "internalType": "bool",
                    "name": "",
                    "type": "bool"
                }
            ],
            "stateMutability": "view",
            "type": "function",
            "constant": true
        },
        {
            "inputs": [
                {
                    "internalType": "string",
                    "name": "_uri",
                    "type": "string"
                },
                {
                    "internalType": "address",
                    "name": "recipient",
                    "type": "address"
                }
            ],
            "name": "mint",
            "outputs": [],
            "stateMutability": "payable",
            "type": "function",
            "payable": true
        },
        {
            "inputs": [],
            "name": "returnID",
            "outputs": [
                {
                    "internalType": "uint256",
                    "name": "",
                    "type": "uint256"
                }
            ],
            "stateMutability": "view",
            "type": "function",
            "constant": true
        },
        {
            "inputs": [],
            "name": "charge",
            "outputs": [],
            "stateMutability": "payable",
            "type": "function",
            "payable": true
        },
        {
            "inputs": [
                {
                    "internalType": "address payable",
                    "name": "receiverAddr",
                    "type": "address"
                },
                {
                    "internalType": "uint256",
                    "name": "receiverAmnt",
                    "type": "uint256"
                }
            ],
            "name": "withdraw",
            "outputs": [],
            "stateMutability": "nonpayable",
            "type": "function"
        }
    ],
    "bytecode": "0x60806040523480156200001157600080fd5b506040518060400160405280600c81526020017f4772696768756e642e6e657400000000000000000000000000000000000000008152506040518060400160405280600481526020017f4772696700000000000000000000000000000000000000000000000000000000815250816000908051906020019062000096929190620000b8565b508060019080519060200190620000af929190620000b8565b505050620001cc565b828054620000c69062000197565b90600052602060002090601f016020900481019282620000ea576000855562000136565b82601f106200010557805160ff191683800117855562000136565b8280016001018555821562000136579182015b828111156200013557825182559160200191906001019062000118565b5b50905062000145919062000149565b5090565b5b80821115620001645760008160009055506001016200014a565b5090565b7f4e487b7100000000000000000000000000000000000000000000000000000000600052602260045260246000fd5b60006002820490506001821680620001b057607f821691505b602082108103620001c657620001c562000168565b5b50919050565b61363080620001dc6000396000f3fe60806040526004361061012a5760003560e01c806355161913116100ab57806395d89b411161006f57806395d89b41146103ea578063a22cb46514610415578063b88d4fde1461043e578063c87b56dd14610467578063e985e9c5146104a4578063f3fef3a3146104e15761012a565b806355161913146103105780635c3581af1461031a5780636352211e146103455780636817c76c1461038257806370a08231146103ad5761012a565b80631c351a9d116100f25780631c351a9d1461022857806323b872dd146102445780632f745c591461026d57806342842e0e146102aa5780634f6ccce7146102d35761012a565b806301ffc9a71461012f57806306fdde031461016c578063081812fc14610197578063095ea7b3146101d457806318160ddd146101fd575b600080fd5b34801561013b57600080fd5b50610156600480360381019061015191906121c3565b61050a565b604051610163919061220b565b60405180910390f35b34801561017857600080fd5b5061018161051c565b60405161018e91906122bf565b60405180910390f35b3480156101a357600080fd5b506101be60048036038101906101b99190612317565b6105ae565b6040516101cb9190612385565b60405180910390f35b3480156101e057600080fd5b506101fb60048036038101906101f691906123cc565b610633565b005b34801561020957600080fd5b5061021261074a565b60405161021f919061241b565b60405180910390f35b610242600480360381019061023d919061256b565b610757565b005b34801561025057600080fd5b5061026b600480360381019061026691906125c7565b61077c565b005b34801561027957600080fd5b50610294600480360381019061028f91906123cc565b6107dc565b6040516102a1919061241b565b60405180910390f35b3480156102b657600080fd5b506102d160048036038101906102cc91906125c7565b610881565b005b3480156102df57600080fd5b506102fa60048036038101906102f59190612317565b6108a1565b604051610307919061241b565b60405180910390f35b610318610912565b005b34801561032657600080fd5b5061032f61092d565b60405161033c919061241b565b60405180910390f35b34801561035157600080fd5b5061036c60048036038101906103679190612317565b61093c565b6040516103799190612385565b60405180910390f35b34801561038e57600080fd5b506103976109ed565b6040516103a4919061241b565b60405180910390f35b3480156103b957600080fd5b506103d460048036038101906103cf919061261a565b6109f2565b6040516103e1919061241b565b60405180910390f35b3480156103f657600080fd5b506103ff610aa9565b60405161040c91906122bf565b60405180910390f35b34801561042157600080fd5b5061043c60048036038101906104379190612673565b610b3b565b005b34801561044a57600080fd5b5061046560048036038101906104609190612754565b610b51565b005b34801561047357600080fd5b5061048e60048036038101906104899190612317565b610bb3565b60405161049b91906122bf565b60405180910390f35b3480156104b057600080fd5b506104cb60048036038101906104c691906127d7565b610bc5565b6040516104d8919061220b565b60405180910390f35b3480156104ed57600080fd5b5061050860048036038101906105039190612855565b610c59565b005b600061051582610ca4565b9050919050565b60606000805461052b906128c4565b80601f0160208091040260200160405190810160405280929190818152602001828054610557906128c4565b80156105a45780601f10610579576101008083540402835291602001916105a4565b820191906000526020600020905b81548152906001019060200180831161058757829003601f168201915b5050505050905090565b60006105b982610d1e565b6105f8576040517f08c379a00000000000000000000000000000000000000000000000000000000081526004016105ef90612967565b60405180910390fd5b6004600083815260200190815260200160002060009054906101000a900473ffffffffffffffffffffffffffffffffffffffff169050919050565b600061063e8261093c565b90508073ffffffffffffffffffffffffffffffffffffffff168373ffffffffffffffffffffffffffffffffffffffff16036106ae576040517f08c379a00000000000000000000000000000000000000000000000000000000081526004016106a5906129f9565b60405180910390fd5b8073ffffffffffffffffffffffffffffffffffffffff166106cd610d8a565b73ffffffffffffffffffffffffffffffffffffffff1614806106fc57506106fb816106f6610d8a565b610bc5565b5b61073b576040517f08c379a000000000000000000000000000000000000000000000000000000000815260040161073290612a8b565b60405180910390fd5b6107458383610d92565b505050565b6000600880549050905090565b600061076161074a565b905061076d8282610e4b565b6107778184610e69565b505050565b61078d610787610d8a565b82610edd565b6107cc576040517f08c379a00000000000000000000000000000000000000000000000000000000081526004016107c390612b1d565b60405180910390fd5b6107d7838383610fbb565b505050565b60006107e7836109f2565b8210610828576040517f08c379a000000000000000000000000000000000000000000000000000000000815260040161081f90612baf565b60405180910390fd5b600660008473ffffffffffffffffffffffffffffffffffffffff1673ffffffffffffffffffffffffffffffffffffffff168152602001908152602001600020600083815260200190815260200160002054905092915050565b61089c83838360405180602001604052806000815250610b51565b505050565b60006108ab61074a565b82106108ec576040517f08c379a00000000000000000000000000000000000000000000000000000000081526004016108e390612c41565b60405180910390fd5b60088281548110610900576108ff612c61565b5b90600052602060002001549050919050565b34600b60008282546109249190612cbf565b92505081905550565b600061093761074a565b905090565b6000806002600084815260200190815260200160002060009054906101000a900473ffffffffffffffffffffffffffffffffffffffff169050600073ffffffffffffffffffffffffffffffffffffffff168173ffffffffffffffffffffffffffffffffffffffff16036109e4576040517f08c379a00000000000000000000000000000000000000000000000000000000081526004016109db90612d87565b60405180910390fd5b80915050919050565b600081565b60008073ffffffffffffffffffffffffffffffffffffffff168273ffffffffffffffffffffffffffffffffffffffff1603610a62576040517f08c379a0000000000000000000000000000000000000000000000000000000008152600401610a5990612e19565b60405180910390fd5b600360008373ffffffffffffffffffffffffffffffffffffffff1673ffffffffffffffffffffffffffffffffffffffff168152602001908152602001600020549050919050565b606060018054610ab8906128c4565b80601f0160208091040260200160405190810160405280929190818152602001828054610ae4906128c4565b8015610b315780601f10610b0657610100808354040283529160200191610b31565b820191906000526020600020905b815481529060010190602001808311610b1457829003601f168201915b5050505050905090565b610b4d610b46610d8a565b8383611221565b5050565b610b62610b5c610d8a565b83610edd565b610ba1576040517f08c379a0000000000000000000000000000000000000000000000000000000008152600401610b9890612b1d565b60405180910390fd5b610bad8484848461138d565b50505050565b6060610bbe826113e9565b9050919050565b6000600560008473ffffffffffffffffffffffffffffffffffffffff1673ffffffffffffffffffffffffffffffffffffffff16815260200190815260200160002060008373ffffffffffffffffffffffffffffffffffffffff1673ffffffffffffffffffffffffffffffffffffffff16815260200190815260200160002060009054906101000a900460ff16905092915050565b8173ffffffffffffffffffffffffffffffffffffffff166108fc829081150290604051600060405180830381858888f19350505050158015610c9f573d6000803e3d6000fd5b505050565b60007f780e9d63000000000000000000000000000000000000000000000000000000007bffffffffffffffffffffffffffffffffffffffffffffffffffffffff1916827bffffffffffffffffffffffffffffffffffffffffffffffffffffffff19161480610d175750610d168261153a565b5b9050919050565b60008073ffffffffffffffffffffffffffffffffffffffff166002600084815260200190815260200160002060009054906101000a900473ffffffffffffffffffffffffffffffffffffffff1673ffffffffffffffffffffffffffffffffffffffff1614159050919050565b600033905090565b816004600083815260200190815260200160002060006101000a81548173ffffffffffffffffffffffffffffffffffffffff021916908373ffffffffffffffffffffffffffffffffffffffff160217905550808273ffffffffffffffffffffffffffffffffffffffff16610e058361093c565b73ffffffffffffffffffffffffffffffffffffffff167f8c5be1e5ebec7d5bd14f71427d1e84f3dd0314c0f7b2291e5b200ac8c7c3b92560405160405180910390a45050565b610e6582826040518060200160405280600081525061161c565b5050565b610e7282610d1e565b610eb1576040517f08c379a0000000000000000000000000000000000000000000000000000000008152600401610ea890612eab565b60405180910390fd5b80600a60008481526020019081526020016000209080519060200190610ed89291906120b4565b505050565b6000610ee882610d1e565b610f27576040517f08c379a0000000000000000000000000000000000000000000000000000000008152600401610f1e90612f3d565b60405180910390fd5b6000610f328361093c565b90508073ffffffffffffffffffffffffffffffffffffffff168473ffffffffffffffffffffffffffffffffffffffff161480610fa157508373ffffffffffffffffffffffffffffffffffffffff16610f89846105ae565b73ffffffffffffffffffffffffffffffffffffffff16145b80610fb25750610fb18185610bc5565b5b91505092915050565b8273ffffffffffffffffffffffffffffffffffffffff16610fdb8261093c565b73ffffffffffffffffffffffffffffffffffffffff1614611031576040517f08c379a000000000000000000000000000000000000000000000000000000000815260040161102890612fcf565b60405180910390fd5b600073ffffffffffffffffffffffffffffffffffffffff168273ffffffffffffffffffffffffffffffffffffffff16036110a0576040517f08c379a000000000000000000000000000000000000000000000000000000000815260040161109790613061565b60405180910390fd5b6110ab838383611677565b6110b6600082610d92565b6001600360008573ffffffffffffffffffffffffffffffffffffffff1673ffffffffffffffffffffffffffffffffffffffff16815260200190815260200160002060008282546111069190613081565b925050819055506001600360008473ffffffffffffffffffffffffffffffffffffffff1673ffffffffffffffffffffffffffffffffffffffff168152602001908152602001600020600082825461115d9190612cbf565b92505081905550816002600083815260200190815260200160002060006101000a81548173ffffffffffffffffffffffffffffffffffffffff021916908373ffffffffffffffffffffffffffffffffffffffff160217905550808273ffffffffffffffffffffffffffffffffffffffff168473ffffffffffffffffffffffffffffffffffffffff167fddf252ad1be2c89b69c2b068fc378daa952ba7f163c4a11628f55a4df523b3ef60405160405180910390a461121c838383611687565b505050565b8173ffffffffffffffffffffffffffffffffffffffff168373ffffffffffffffffffffffffffffffffffffffff160361128f576040517f08c379a000000000000000000000000000000000000000000000000000000000815260040161128690613101565b60405180910390fd5b80600560008573ffffffffffffffffffffffffffffffffffffffff1673ffffffffffffffffffffffffffffffffffffffff16815260200190815260200160002060008473ffffffffffffffffffffffffffffffffffffffff1673ffffffffffffffffffffffffffffffffffffffff16815260200190815260200160002060006101000a81548160ff0219169083151502179055508173ffffffffffffffffffffffffffffffffffffffff168373ffffffffffffffffffffffffffffffffffffffff167f17307eab39ab6107e8899845ad3d59bd9653f200f220920489ca2b5937696c3183604051611380919061220b565b60405180910390a3505050565b611398848484610fbb565b6113a48484848461168c565b6113e3576040517f08c379a00000000000000000000000000000000000000000000000000000000081526004016113da90613193565b60405180910390fd5b50505050565b60606113f482610d1e565b611433576040517f08c379a000000000000000000000000000000000000000000000000000000000815260040161142a90613225565b60405180910390fd5b6000600a60008481526020019081526020016000208054611453906128c4565b80601f016020809104026020016040519081016040528092919081815260200182805461147f906128c4565b80156114cc5780601f106114a1576101008083540402835291602001916114cc565b820191906000526020600020905b8154815290600101906020018083116114af57829003601f168201915b5050505050905060006114dd611813565b905060008151036114f2578192505050611535565b60008251111561152757808260405160200161150f929190613281565b60405160208183030381529060405292505050611535565b6115308461182a565b925050505b919050565b60007f80ac58cd000000000000000000000000000000000000000000000000000000007bffffffffffffffffffffffffffffffffffffffffffffffffffffffff1916827bffffffffffffffffffffffffffffffffffffffffffffffffffffffff1916148061160557507f5b5e139f000000000000000000000000000000000000000000000000000000007bffffffffffffffffffffffffffffffffffffffffffffffffffffffff1916827bffffffffffffffffffffffffffffffffffffffffffffffffffffffff1916145b806116155750611614826118d1565b5b9050919050565b611626838361193b565b611633600084848461168c565b611672576040517f08c379a000000000000000000000000000000000000000000000000000000000815260040161166990613193565b60405180910390fd5b505050565b611682838383611b14565b505050565b505050565b60006116ad8473ffffffffffffffffffffffffffffffffffffffff16611c26565b15611806578373ffffffffffffffffffffffffffffffffffffffff1663150b7a026116d6610d8a565b8786866040518563ffffffff1660e01b81526004016116f894939291906132fa565b6020604051808303816000875af192505050801561173457506040513d601f19601f82011682018060405250810190611731919061335b565b60015b6117b6573d8060008114611764576040519150601f19603f3d011682016040523d82523d6000602084013e611769565b606091505b5060008151036117ae576040517f08c379a00000000000000000000000000000000000000000000000000000000081526004016117a590613193565b60405180910390fd5b805181602001fd5b63150b7a0260e01b7bffffffffffffffffffffffffffffffffffffffffffffffffffffffff1916817bffffffffffffffffffffffffffffffffffffffffffffffffffffffff19161491505061180b565b600190505b949350505050565b606060405180602001604052806000815250905090565b606061183582610d1e565b611874576040517f08c379a000000000000000000000000000000000000000000000000000000000815260040161186b906133fa565b60405180910390fd5b600061187e611813565b9050600081511161189e57604051806020016040528060008152506118c9565b806118a884611c49565b6040516020016118b9929190613281565b6040516020818303038152906040525b915050919050565b60007f01ffc9a7000000000000000000000000000000000000000000000000000000007bffffffffffffffffffffffffffffffffffffffffffffffffffffffff1916827bffffffffffffffffffffffffffffffffffffffffffffffffffffffff1916149050919050565b600073ffffffffffffffffffffffffffffffffffffffff168273ffffffffffffffffffffffffffffffffffffffff16036119aa576040517f08c379a00000000000000000000000000000000000000000000000000000000081526004016119a190613466565b60405180910390fd5b6119b381610d1e565b156119f3576040517f08c379a00000000000000000000000000000000000000000000000000000000081526004016119ea906134d2565b60405180910390fd5b6119ff60008383611677565b6001600360008473ffffffffffffffffffffffffffffffffffffffff1673ffffffffffffffffffffffffffffffffffffffff1681526020019081526020016000206000828254611a4f9190612cbf565b92505081905550816002600083815260200190815260200160002060006101000a81548173ffffffffffffffffffffffffffffffffffffffff021916908373ffffffffffffffffffffffffffffffffffffffff160217905550808273ffffffffffffffffffffffffffffffffffffffff16600073ffffffffffffffffffffffffffffffffffffffff167fddf252ad1be2c89b69c2b068fc378daa952ba7f163c4a11628f55a4df523b3ef60405160405180910390a4611b1060008383611687565b5050565b611b1f838383611da9565b600073ffffffffffffffffffffffffffffffffffffffff168373ffffffffffffffffffffffffffffffffffffffff1603611b6157611b5c81611dae565b611ba0565b8173ffffffffffffffffffffffffffffffffffffffff168373ffffffffffffffffffffffffffffffffffffffff1614611b9f57611b9e8382611df7565b5b5b600073ffffffffffffffffffffffffffffffffffffffff168273ffffffffffffffffffffffffffffffffffffffff1603611be257611bdd81611f64565b611c21565b8273ffffffffffffffffffffffffffffffffffffffff168273ffffffffffffffffffffffffffffffffffffffff1614611c2057611c1f8282612035565b5b5b505050565b6000808273ffffffffffffffffffffffffffffffffffffffff163b119050919050565b606060008203611c90576040518060400160405280600181526020017f30000000000000000000000000000000000000000000000000000000000000008152509050611da4565b600082905060005b60008214611cc2578080611cab906134f2565b915050600a82611cbb9190613569565b9150611c98565b60008167ffffffffffffffff811115611cde57611cdd612440565b5b6040519080825280601f01601f191660200182016040528015611d105781602001600182028036833780820191505090505b5090505b60008514611d9d57600182611d299190613081565b9150600a85611d38919061359a565b6030611d449190612cbf565b60f81b818381518110611d5a57611d59612c61565b5b60200101907effffffffffffffffffffffffffffffffffffffffffffffffffffffffffffff1916908160001a905350600a85611d969190613569565b9450611d14565b8093505050505b919050565b505050565b6008805490506009600083815260200190815260200160002081905550600881908060018154018082558091505060019003906000526020600020016000909190919091505550565b60006001611e04846109f2565b611e0e9190613081565b9050600060076000848152602001908152602001600020549050818114611ef3576000600660008673ffffffffffffffffffffffffffffffffffffffff1673ffffffffffffffffffffffffffffffffffffffff168152602001908152602001600020600084815260200190815260200160002054905080600660008773ffffffffffffffffffffffffffffffffffffffff1673ffffffffffffffffffffffffffffffffffffffff168152602001908152602001600020600084815260200190815260200160002081905550816007600083815260200190815260200160002081905550505b6007600084815260200190815260200160002060009055600660008573ffffffffffffffffffffffffffffffffffffffff1673ffffffffffffffffffffffffffffffffffffffff16815260200190815260200160002060008381526020019081526020016000206000905550505050565b60006001600880549050611f789190613081565b9050600060096000848152602001908152602001600020549050600060088381548110611fa857611fa7612c61565b5b906000526020600020015490508060088381548110611fca57611fc9612c61565b5b906000526020600020018190555081600960008381526020019081526020016000208190555060096000858152602001908152602001600020600090556008805480612019576120186135cb565b5b6001900381819060005260206000200160009055905550505050565b6000612040836109f2565b905081600660008573ffffffffffffffffffffffffffffffffffffffff1673ffffffffffffffffffffffffffffffffffffffff168152602001908152602001600020600083815260200190815260200160002081905550806007600084815260200190815260200160002081905550505050565b8280546120c0906128c4565b90600052602060002090601f0160209004810192826120e25760008555612129565b82601f106120fb57805160ff1916838001178555612129565b82800160010185558215612129579182015b8281111561212857825182559160200191906001019061210d565b5b509050612136919061213a565b5090565b5b8082111561215357600081600090555060010161213b565b5090565b6000604051905090565b600080fd5b600080fd5b60007fffffffff0000000000000000000000000000000000000000000000000000000082169050919050565b6121a08161216b565b81146121ab57600080fd5b50565b6000813590506121bd81612197565b92915050565b6000602082840312156121d9576121d8612161565b5b60006121e7848285016121ae565b91505092915050565b60008115159050919050565b612205816121f0565b82525050565b600060208201905061222060008301846121fc565b92915050565b600081519050919050565b600082825260208201905092915050565b60005b83811015612260578082015181840152602081019050612245565b8381111561226f576000848401525b50505050565b6000601f19601f8301169050919050565b600061229182612226565b61229b8185612231565b93506122ab818560208601612242565b6122b481612275565b840191505092915050565b600060208201905081810360008301526122d98184612286565b905092915050565b6000819050919050565b6122f4816122e1565b81146122ff57600080fd5b50565b600081359050612311816122eb565b92915050565b60006020828403121561232d5761232c612161565b5b600061233b84828501612302565b91505092915050565b600073ffffffffffffffffffffffffffffffffffffffff82169050919050565b600061236f82612344565b9050919050565b61237f81612364565b82525050565b600060208201905061239a6000830184612376565b92915050565b6123a981612364565b81146123b457600080fd5b50565b6000813590506123c6816123a0565b92915050565b600080604083850312156123e3576123e2612161565b5b60006123f1858286016123b7565b925050602061240285828601612302565b9150509250929050565b612415816122e1565b82525050565b6000602082019050612430600083018461240c565b92915050565b600080fd5b600080fd5b7f4e487b7100000000000000000000000000000000000000000000000000000000600052604160045260246000fd5b61247882612275565b810181811067ffffffffffffffff8211171561249757612496612440565b5b80604052505050565b60006124aa612157565b90506124b6828261246f565b919050565b600067ffffffffffffffff8211156124d6576124d5612440565b5b6124df82612275565b9050602081019050919050565b82818337600083830152505050565b600061250e612509846124bb565b6124a0565b90508281526020810184848401111561252a5761252961243b565b5b6125358482856124ec565b509392505050565b600082601f83011261255257612551612436565b5b81356125628482602086016124fb565b91505092915050565b6000806040838503121561258257612581612161565b5b600083013567ffffffffffffffff8111156125a05761259f612166565b5b6125ac8582860161253d565b92505060206125bd858286016123b7565b9150509250929050565b6000806000606084860312156125e0576125df612161565b5b60006125ee868287016123b7565b93505060206125ff868287016123b7565b925050604061261086828701612302565b9150509250925092565b6000602082840312156126305761262f612161565b5b600061263e848285016123b7565b91505092915050565b612650816121f0565b811461265b57600080fd5b50565b60008135905061266d81612647565b92915050565b6000806040838503121561268a57612689612161565b5b6000612698858286016123b7565b92505060206126a98582860161265e565b9150509250929050565b600067ffffffffffffffff8211156126ce576126cd612440565b5b6126d782612275565b9050602081019050919050565b60006126f76126f2846126b3565b6124a0565b9050828152602081018484840111156127135761271261243b565b5b61271e8482856124ec565b509392505050565b600082601f83011261273b5761273a612436565b5b813561274b8482602086016126e4565b91505092915050565b6000806000806080858703121561276e5761276d612161565b5b600061277c878288016123b7565b945050602061278d878288016123b7565b935050604061279e87828801612302565b925050606085013567ffffffffffffffff8111156127bf576127be612166565b5b6127cb87828801612726565b91505092959194509250565b600080604083850312156127ee576127ed612161565b5b60006127fc858286016123b7565b925050602061280d858286016123b7565b9150509250929050565b600061282282612344565b9050919050565b61283281612817565b811461283d57600080fd5b50565b60008135905061284f81612829565b92915050565b6000806040838503121561286c5761286b612161565b5b600061287a85828601612840565b925050602061288b85828601612302565b9150509250929050565b7f4e487b7100000000000000000000000000000000000000000000000000000000600052602260045260246000fd5b600060028204905060018216806128dc57607f821691505b6020821081036128ef576128ee612895565b5b50919050565b7f4552433732313a20617070726f76656420717565727920666f72206e6f6e657860008201527f697374656e7420746f6b656e0000000000000000000000000000000000000000602082015250565b6000612951602c83612231565b915061295c826128f5565b604082019050919050565b6000602082019050818103600083015261298081612944565b9050919050565b7f4552433732313a20617070726f76616c20746f2063757272656e74206f776e6560008201527f7200000000000000000000000000000000000000000000000000000000000000602082015250565b60006129e3602183612231565b91506129ee82612987565b604082019050919050565b60006020820190508181036000830152612a12816129d6565b9050919050565b7f4552433732313a20617070726f76652063616c6c6572206973206e6f74206f7760008201527f6e6572206e6f7220617070726f76656420666f7220616c6c0000000000000000602082015250565b6000612a75603883612231565b9150612a8082612a19565b604082019050919050565b60006020820190508181036000830152612aa481612a68565b9050919050565b7f4552433732313a207472616e736665722063616c6c6572206973206e6f74206f60008201527f776e6572206e6f7220617070726f766564000000000000000000000000000000602082015250565b6000612b07603183612231565b9150612b1282612aab565b604082019050919050565b60006020820190508181036000830152612b3681612afa565b9050919050565b7f455243373231456e756d657261626c653a206f776e657220696e646578206f7560008201527f74206f6620626f756e6473000000000000000000000000000000000000000000602082015250565b6000612b99602b83612231565b9150612ba482612b3d565b604082019050919050565b60006020820190508181036000830152612bc881612b8c565b9050919050565b7f455243373231456e756d657261626c653a20676c6f62616c20696e646578206f60008201527f7574206f6620626f756e64730000000000000000000000000000000000000000602082015250565b6000612c2b602c83612231565b9150612c3682612bcf565b604082019050919050565b60006020820190508181036000830152612c5a81612c1e565b9050919050565b7f4e487b7100000000000000000000000000000000000000000000000000000000600052603260045260246000fd5b7f4e487b7100000000000000000000000000000000000000000000000000000000600052601160045260246000fd5b6000612cca826122e1565b9150612cd5836122e1565b9250827fffffffffffffffffffffffffffffffffffffffffffffffffffffffffffffffff03821115612d0a57612d09612c90565b5b828201905092915050565b7f4552433732313a206f776e657220717565727920666f72206e6f6e657869737460008201527f656e7420746f6b656e0000000000000000000000000000000000000000000000602082015250565b6000612d71602983612231565b9150612d7c82612d15565b604082019050919050565b60006020820190508181036000830152612da081612d64565b9050919050565b7f4552433732313a2062616c616e636520717565727920666f7220746865207a6560008201527f726f206164647265737300000000000000000000000000000000000000000000602082015250565b6000612e03602a83612231565b9150612e0e82612da7565b604082019050919050565b60006020820190508181036000830152612e3281612df6565b9050919050565b7f45524337323155524953746f726167653a2055524920736574206f66206e6f6e60008201527f6578697374656e7420746f6b656e000000000000000000000000000000000000602082015250565b6000612e95602e83612231565b9150612ea082612e39565b604082019050919050565b60006020820190508181036000830152612ec481612e88565b9050919050565b7f4552433732313a206f70657261746f7220717565727920666f72206e6f6e657860008201527f697374656e7420746f6b656e0000000000000000000000000000000000000000602082015250565b6000612f27602c83612231565b9150612f3282612ecb565b604082019050919050565b60006020820190508181036000830152612f5681612f1a565b9050919050565b7f4552433732313a207472616e736665722066726f6d20696e636f72726563742060008201527f6f776e6572000000000000000000000000000000000000000000000000000000602082015250565b6000612fb9602583612231565b9150612fc482612f5d565b604082019050919050565b60006020820190508181036000830152612fe881612fac565b9050919050565b7f4552433732313a207472616e7366657220746f20746865207a65726f2061646460008201527f7265737300000000000000000000000000000000000000000000000000000000602082015250565b600061304b602483612231565b915061305682612fef565b604082019050919050565b6000602082019050818103600083015261307a8161303e565b9050919050565b600061308c826122e1565b9150613097836122e1565b9250828210156130aa576130a9612c90565b5b828203905092915050565b7f4552433732313a20617070726f766520746f2063616c6c657200000000000000600082015250565b60006130eb601983612231565b91506130f6826130b5565b602082019050919050565b6000602082019050818103600083015261311a816130de565b9050919050565b7f4552433732313a207472616e7366657220746f206e6f6e20455243373231526560008201527f63656976657220696d706c656d656e7465720000000000000000000000000000602082015250565b600061317d603283612231565b915061318882613121565b604082019050919050565b600060208201905081810360008301526131ac81613170565b9050919050565b7f45524337323155524953746f726167653a2055524920717565727920666f722060008201527f6e6f6e6578697374656e7420746f6b656e000000000000000000000000000000602082015250565b600061320f603183612231565b915061321a826131b3565b604082019050919050565b6000602082019050818103600083015261323e81613202565b9050919050565b600081905092915050565b600061325b82612226565b6132658185613245565b9350613275818560208601612242565b80840191505092915050565b600061328d8285613250565b91506132998284613250565b91508190509392505050565b600081519050919050565b600082825260208201905092915050565b60006132cc826132a5565b6132d681856132b0565b93506132e6818560208601612242565b6132ef81612275565b840191505092915050565b600060808201905061330f6000830187612376565b61331c6020830186612376565b613329604083018561240c565b818103606083015261333b81846132c1565b905095945050505050565b60008151905061335581612197565b92915050565b60006020828403121561337157613370612161565b5b600061337f84828501613346565b91505092915050565b7f4552433732314d657461646174613a2055524920717565727920666f72206e6f60008201527f6e6578697374656e7420746f6b656e0000000000000000000000000000000000602082015250565b60006133e4602f83612231565b91506133ef82613388565b604082019050919050565b60006020820190508181036000830152613413816133d7565b9050919050565b7f4552433732313a206d696e7420746f20746865207a65726f2061646472657373600082015250565b6000613450602083612231565b915061345b8261341a565b602082019050919050565b6000602082019050818103600083015261347f81613443565b9050919050565b7f4552433732313a20746f6b656e20616c7265616479206d696e74656400000000600082015250565b60006134bc601c83612231565b91506134c782613486565b602082019050919050565b600060208201905081810360008301526134eb816134af565b9050919050565b60006134fd826122e1565b91507fffffffffffffffffffffffffffffffffffffffffffffffffffffffffffffffff820361352f5761352e612c90565b5b600182019050919050565b7f4e487b7100000000000000000000000000000000000000000000000000000000600052601260045260246000fd5b6000613574826122e1565b915061357f836122e1565b92508261358f5761358e61353a565b5b828204905092915050565b60006135a5826122e1565b91506135b0836122e1565b9250826135c0576135bf61353a565b5b828206905092915050565b7f4e487b7100000000000000000000000000000000000000000000000000000000600052603160045260246000fdfea264697066735822122073fa98cb71bf7586c7829af00c2d3c90e1a7864f9c1568a8e6abdfa879fa81d264736f6c634300080d0033",
    "immutableReferences": {},
    "source": "// SPDX-License-Identifier: MIT\r\npragma solidity ^0.8.13;\r\n\r\nimport \"@openzeppelin/contracts/token/ERC721/extensions/ERC721Enumerable.sol\";\r\nimport \"@openzeppelin/contracts/token/ERC721/extensions/ERC721URIStorage.sol\";\r\nimport \"@openzeppelin/contracts/token/ERC721/ERC721.sol\";\r\nimport \"@openzeppelin/contracts/utils/math/SafeMath.sol\";\r\n\r\ncontract MintNFT is ERC721, ERC721Enumerable, ERC721URIStorage {\r\n\r\n    using SafeMath for uint256;\r\n    uint public constant mintPrice = 0;\r\n    uint256 total_value;\r\n\r\n\r\n    function _beforeTokenTransfer(address from, address to, uint256 tokenId) internal override(ERC721, ERC721Enumerable){\r\n        super._beforeTokenTransfer(from,to,tokenId);\r\n    }\r\n\r\n    function _burn(uint256 tokenId) internal override(ERC721, ERC721URIStorage){\r\n        super._burn(tokenId);\r\n    }\r\n\r\n    function tokenURI(uint256 tokenId) public view override(ERC721, ERC721URIStorage) returns(string memory){\r\n        return super.tokenURI(tokenId);\r\n    }\r\n\r\n    function supportsInterface(bytes4 interfaceId) public view override(ERC721, ERC721Enumerable) returns (bool){\r\n        return super.supportsInterface(interfaceId);\r\n    }\r\n\r\n    constructor() ERC721(\"Grighund.net\", \"Grig\"){}\r\n\r\n    function mint(string memory _uri, address recipient) public payable {\r\n        uint256 mintIndex = totalSupply();\r\n        _safeMint(recipient, mintIndex);\r\n        _setTokenURI(mintIndex, _uri);\r\n    }\r\n\r\n    function returnID() public view returns(uint256){\r\n        return totalSupply();\r\n    }\r\n\r\n    function charge() payable public{\r\n        total_value += msg.value;\r\n    }\r\n    \r\n    function withdraw(address payable receiverAddr, uint receiverAmnt) public {\r\n        receiverAddr.transfer(receiverAmnt);\r\n    }\r\n\r\n}",
    "sourcePath": "C:\\Users\\izaan\\Desktop\\DS\\Grighund.net\\smartContract\\contracts\\MintNFT.sol",
    "compiler": {
        "name": "solc",
        "version": "0.8.13+commit.abaa5c0e.Emscripten.clang"
    },
    "schemaVersion": "3.4.6",
    "updatedAt": "2022-05-17T14:58:19.998Z",
    "networkType": "ethereum",
    "devdoc": {
        "kind": "dev",
        "methods": {
            "approve(address,uint256)": {
                "details": "See {IERC721-approve}."
            },
            "balanceOf(address)": {
                "details": "See {IERC721-balanceOf}."
            },
            "getApproved(uint256)": {
                "details": "See {IERC721-getApproved}."
            },
            "isApprovedForAll(address,address)": {
                "details": "See {IERC721-isApprovedForAll}."
            },
            "name()": {
                "details": "See {IERC721Metadata-name}."
            },
            "ownerOf(uint256)": {
                "details": "See {IERC721-ownerOf}."
            },
            "safeTransferFrom(address,address,uint256)": {
                "details": "See {IERC721-safeTransferFrom}."
            },
            "safeTransferFrom(address,address,uint256,bytes)": {
                "details": "See {IERC721-safeTransferFrom}."
            },
            "setApprovalForAll(address,bool)": {
                "details": "See {IERC721-setApprovalForAll}."
            },
            "symbol()": {
                "details": "See {IERC721Metadata-symbol}."
            },
            "tokenByIndex(uint256)": {
                "details": "See {IERC721Enumerable-tokenByIndex}."
            },
            "tokenOfOwnerByIndex(address,uint256)": {
                "details": "See {IERC721Enumerable-tokenOfOwnerByIndex}."
            },
            "totalSupply()": {
                "details": "See {IERC721Enumerable-totalSupply}."
            },
            "transferFrom(address,address,uint256)": {
                "details": "See {IERC721-transferFrom}."
            }
        },
        "version": 1
    },
    "userdoc": {
        "kind": "user",
        "methods": {},
        "version": 1
    }
}